{
  "contractName": "Loan",
  "abi": [
    {
      "constant": true,
      "inputs": [],
      "name": "findCurrentLoanId",
      "outputs": [
        {
          "name": "loanIdentifier",
          "type": "uint256"
        }
      ],
      "payable": false,
      "stateMutability": "view",
      "type": "function"
    },
    {
      "constant": false,
      "inputs": [
        {
          "name": "lenderName",
          "type": "string"
        },
        {
          "name": "borrowerName",
          "type": "string"
        },
        {
          "name": "borrowerAddress",
          "type": "address"
        },
        {
          "name": "purposeLoan",
          "type": "string"
        },
        {
          "name": "loanAmount",
          "type": "uint256"
        },
        {
          "name": "tranchesTmp",
          "type": "uint256"
        },
        {
          "name": "interestRate",
          "type": "uint256"
        },
        {
          "name": "signingDate",
          "type": "uint256"
        },
        {
          "name": "firstDrawdownDate",
          "type": "uint256"
        }
      ],
      "name": "requestLoan",
      "outputs": [
        {
          "name": "success",
          "type": "bool"
        }
      ],
      "payable": false,
      "stateMutability": "nonpayable",
      "type": "function"
    },
    {
      "constant": false,
      "inputs": [],
      "name": "confirmLoan",
      "outputs": [
        {
          "name": "success",
          "type": "bool"
        }
      ],
      "payable": false,
      "stateMutability": "nonpayable",
      "type": "function"
    },
    {
      "constant": true,
      "inputs": [],
      "name": "getToTalLoanAmount",
      "outputs": [
        {
          "name": "totalAmount",
          "type": "uint256"
        }
      ],
      "payable": false,
      "stateMutability": "view",
      "type": "function"
    },
    {
      "constant": true,
      "inputs": [],
      "name": "getInitialDrawdownAmount",
      "outputs": [
        {
          "name": "initialDrawdownAmount",
          "type": "uint256"
        }
      ],
      "payable": false,
      "stateMutability": "view",
      "type": "function"
    },
    {
      "constant": false,
      "inputs": [
        {
          "name": "date",
          "type": "uint256"
        }
      ],
      "name": "initialCashPayment",
      "outputs": [
        {
          "name": "data",
          "type": "uint256"
        }
      ],
      "payable": true,
      "stateMutability": "payable",
      "type": "function"
    },
    {
      "constant": true,
      "inputs": [],
      "name": "findBorrowerDrawdownAmount",
      "outputs": [
        {
          "name": "currentBorrowerDrawdownAmount",
          "type": "uint256"
        }
      ],
      "payable": false,
      "stateMutability": "view",
      "type": "function"
    },
    {
      "constant": true,
      "inputs": [],
      "name": "findRegularDrawdownAmount",
      "outputs": [
        {
          "name": "currentDrawdownAmount",
          "type": "uint256"
        }
      ],
      "payable": false,
      "stateMutability": "view",
      "type": "function"
    },
    {
      "constant": true,
      "inputs": [],
      "name": "findLendersOpenCommitment",
      "outputs": [
        {
          "name": "lenderOutstandingCommitment",
          "type": "uint256"
        }
      ],
      "payable": false,
      "stateMutability": "view",
      "type": "function"
    },
    {
      "constant": true,
      "inputs": [],
      "name": "findCurrentProjectProgress",
      "outputs": [
        {
          "name": "expectedProgress",
          "type": "uint256"
        }
      ],
      "payable": false,
      "stateMutability": "view",
      "type": "function"
    },
    {
      "constant": false,
      "inputs": [
        {
          "name": "projectProgress",
          "type": "uint256"
        }
      ],
      "name": "verifyDrawdownApproval",
      "outputs": [
        {
          "name": "confirmation",
          "type": "bool"
        }
      ],
      "payable": false,
      "stateMutability": "nonpayable",
      "type": "function"
    },
    {
      "constant": false,
      "inputs": [
        {
          "name": "date",
          "type": "uint256"
        }
      ],
      "name": "requestDrawdown",
      "outputs": [
        {
          "name": "success",
          "type": "bool"
        }
      ],
      "payable": true,
      "stateMutability": "payable",
      "type": "function"
    },
    {
      "constant": true,
      "inputs": [],
      "name": "findLoansInterestRate",
      "outputs": [
        {
          "name": "interestRate",
          "type": "uint256"
        }
      ],
      "payable": false,
      "stateMutability": "view",
      "type": "function"
    },
    {
      "constant": true,
      "inputs": [],
      "name": "getPaymentInterest",
      "outputs": [
        {
          "name": "lenderCommitmentAmount",
          "type": "uint256"
        }
      ],
      "payable": false,
      "stateMutability": "view",
      "type": "function"
    },
    {
      "constant": true,
      "inputs": [
        {
          "name": "repayment",
          "type": "uint256"
        }
      ],
      "name": "verifyRepayment",
      "outputs": [
        {
          "name": "verify",
          "type": "bool"
        }
      ],
      "payable": false,
      "stateMutability": "view",
      "type": "function"
    },
    {
      "constant": false,
      "inputs": [
        {
          "name": "date",
          "type": "uint256"
        }
      ],
      "name": "requestRepayment",
      "outputs": [
        {
          "name": "success",
          "type": "bool"
        }
      ],
      "payable": true,
      "stateMutability": "payable",
      "type": "function"
    },
    {
      "constant": true,
      "inputs": [],
      "name": "findTotalRepaymentAmount",
      "outputs": [
        {
          "name": "repaymentAmount",
          "type": "uint256"
        }
      ],
      "payable": false,
      "stateMutability": "view",
      "type": "function"
    }
  ],
  "bytecode": "0x60806040526000805534801561001457600080fd5b50611c03806100246000396000f3006080604052600436106100f1576000357c0100000000000000000000000000000000000000000000000000000000900463ffffffff16806308860b3a146100f65780630f143e451461012657806334782e1a1461016357806349950d111461018e5780634a2a7d5d146101b957806358fe22be146101e45780636bc67733146102145780637af84cdb1461023f5780639bf0e6031461026a578063b2b429d314610295578063b3e03f43146102c0578063b8d558e4146102eb578063d768c90d14610328578063dd07e19514610358578063e12af7a714610395578063ef09e94c146103c0578063f2300d18146103eb575b600080fd5b610110600480360361010b9190810190611aa4565b610416565b60405161011d9190611b06565b60405180910390f35b34801561013257600080fd5b5061014d60048036036101489190810190611aa4565b610514565b60405161015a9190611aeb565b60405180910390f35b34801561016f57600080fd5b5061017861061d565b6040516101859190611b06565b60405180910390f35b34801561019a57600080fd5b506101a3610656565b6040516101b09190611b06565b60405180910390f35b3480156101c557600080fd5b506101ce61068f565b6040516101db9190611b06565b60405180910390f35b6101fe60048036036101f99190810190611aa4565b6107c4565b60405161020b9190611aeb565b60405180910390f35b34801561022057600080fd5b50610229610aa4565b6040516102369190611b06565b60405180910390f35b34801561024b57600080fd5b50610254610add565b6040516102619190611b06565b60405180910390f35b34801561027657600080fd5b5061027f610b16565b60405161028c9190611aeb565b60405180910390f35b3480156102a157600080fd5b506102aa610bdc565b6040516102b79190611b06565b60405180910390f35b3480156102cc57600080fd5b506102d5610c3c565b6040516102e29190611b06565b60405180910390f35b3480156102f757600080fd5b50610312600480360361030d9190810190611996565b610c75565b60405161031f9190611aeb565b60405180910390f35b610342600480360361033d9190810190611aa4565b611408565b60405161034f9190611aeb565b60405180910390f35b34801561036457600080fd5b5061037f600480360361037a9190810190611aa4565b611694565b60405161038c9190611aeb565b60405180910390f35b3480156103a157600080fd5b506103aa6117a4565b6040516103b79190611b06565b60405180910390f35b3480156103cc57600080fd5b506103d56117dd565b6040516103e29190611b06565b60405180910390f35b3480156103f757600080fd5b5061040061183a565b60405161040d9190611b06565b60405180910390f35b60008061042161068f565b905060008111151561043257600080fd5b60003411151561044157600080fd5b6002600082815260200190815260200160002060030160000160009054906101000a900473ffffffffffffffffffffffffffffffffffffffff1673ffffffffffffffffffffffffffffffffffffffff166108fc349081150290604051600060405180830381858888f193505050501580156104c0573d6000803e3d6000fd5b5060016005600083815260200190815260200160002060070160006101000a81548160ff02191690831515021790555082600560008381526020019081526020016000206001018190555080915050919050565b60008061051f61068f565b905060008111151561053057600080fd5b6002600082815260200190815260200160002060030160000160009054906101000a900473ffffffffffffffffffffffffffffffffffffffff1673ffffffffffffffffffffffffffffffffffffffff163373ffffffffffffffffffffffffffffffffffffffff161415156105a357600080fd5b6000831115156105b257600080fd5b6002600082815260200190815260200160002060060154831015156105d657600080fd5b6002600082815260200190815260200160002060060154836005600084815260200190815260200160002060060154011115151561061357600080fd5b6001915050919050565b60008061062861068f565b905060008111151561063957600080fd5b600560008281526020019081526020016000206005015491505090565b60008061066161068f565b905060008111151561067257600080fd5b600560008281526020019081526020016000206002015491505090565b600080600090506000600360003373ffffffffffffffffffffffffffffffffffffffff1673ffffffffffffffffffffffffffffffffffffffff16815260200190815260200160002060020154111561072b57600360003373ffffffffffffffffffffffffffffffffffffffff1673ffffffffffffffffffffffffffffffffffffffff1681526020019081526020016000206002015490506107bd565b6000600460003373ffffffffffffffffffffffffffffffffffffffff1673ffffffffffffffffffffffffffffffffffffffff1681526020019081526020016000206002015411156107bc57600460003373ffffffffffffffffffffffffffffffffffffffff1673ffffffffffffffffffffffffffffffffffffffff1681526020019081526020016000206002015490505b5b8091505090565b6000806000806000806107d561068f565b94506000851115156107e657600080fd5b6002600086815260200190815260200160002060030160000160009054906101000a900473ffffffffffffffffffffffffffffffffffffffff1673ffffffffffffffffffffffffffffffffffffffff163373ffffffffffffffffffffffffffffffffffffffff1614151561085957600080fd5b60003411151561086857600080fd5b6002600086815260200190815260200160002060060154341115151561088d57600080fd5b600260008681526020019081526020016000206006015434600560008881526020019081526020016000206006015401111515156108ca57600080fd5b34600560008781526020019081526020016000206004015403935060056000868152602001908152602001600020600301549250618ca060026000878152602001908152602001600020600701546005600088815260200190815260200160002060040154601e020281151561093c57fe5b049150346005600087815260200190815260200160002060060154019050610100604051908101604052808681526020018881526020013481526020018481526020018581526020018381526020018281526020016001151581525060056000878152602001908152602001600020600082015181600001556020820151816001015560408201518160020155606082015181600301556080820151816004015560a0820151816005015560c0820151816006015560e08201518160070160006101000a81548160ff0219169083151502179055509050506002600086815260200190815260200160002060000160000160009054906101000a900473ffffffffffffffffffffffffffffffffffffffff1673ffffffffffffffffffffffffffffffffffffffff166108fc8334019081150290604051600060405180830381858888f19350505050158015610a95573d6000803e3d6000fd5b50600195505050505050919050565b600080610aaf61068f565b9050600081111515610ac057600080fd5b600260008281526020019081526020016000206006015491505090565b600080610ae861068f565b9050600081111515610af957600080fd5b600560008281526020019081526020016000206006015491505090565b600080610b2161068f565b9050600081111515610b3257600080fd5b6002600082815260200190815260200160002060030160000160009054906101000a900473ffffffffffffffffffffffffffffffffffffffff1673ffffffffffffffffffffffffffffffffffffffff163373ffffffffffffffffffffffffffffffffffffffff16141515610ba557600080fd5b600160026000838152602001908152602001600020600b0160006101000a81548160ff021916908315150217905550600191505090565b6000806000610be961068f565b9150600082111515610bfa57600080fd5b60026000838152602001908152602001600020600a01546002600084815260200190815260200160002060060154811515610c3157fe5b049050809250505090565b600080610c4761068f565b9050600081111515610c5857600080fd5b600560008281526020019081526020016000206003015491505090565b600080600080600081548092919060010191905055506060604051908101604052803373ffffffffffffffffffffffffffffffffffffffff1681526020018d8152602001600054815250600360003373ffffffffffffffffffffffffffffffffffffffff1673ffffffffffffffffffffffffffffffffffffffff16815260200190815260200160002060008201518160000160006101000a81548173ffffffffffffffffffffffffffffffffffffffff021916908373ffffffffffffffffffffffffffffffffffffffff1602179055506020820151816001019080519060200190610d61929190611873565b50604082015181600201559050506060604051908101604052808b73ffffffffffffffffffffffffffffffffffffffff1681526020018c8152602001600054815250600460008c73ffffffffffffffffffffffffffffffffffffffff1673ffffffffffffffffffffffffffffffffffffffff16815260200190815260200160002060008201518160000160006101000a81548173ffffffffffffffffffffffffffffffffffffffff021916908373ffffffffffffffffffffffffffffffffffffffff1602179055506020820151816001019080519060200190610e45929190611873565b506040820151816002015590505061010060405190810160405280600360003373ffffffffffffffffffffffffffffffffffffffff1673ffffffffffffffffffffffffffffffffffffffff168152602001908152602001600020606060405190810160405290816000820160009054906101000a900473ffffffffffffffffffffffffffffffffffffffff1673ffffffffffffffffffffffffffffffffffffffff1673ffffffffffffffffffffffffffffffffffffffff168152602001600182018054600181600116156101000203166002900480601f016020809104026020016040519081016040528092919081815260200182805460018160011615610100020316600290048015610f9a5780601f10610f6f57610100808354040283529160200191610f9a565b820191906000526020600020905b815481529060010190602001808311610f7d57829003601f168201915b505050505081526020016002820154815250508152602001600460008d73ffffffffffffffffffffffffffffffffffffffff1673ffffffffffffffffffffffffffffffffffffffff168152602001908152602001600020606060405190810160405290816000820160009054906101000a900473ffffffffffffffffffffffffffffffffffffffff1673ffffffffffffffffffffffffffffffffffffffff1673ffffffffffffffffffffffffffffffffffffffff168152602001600182018054600181600116156101000203166002900480601f0160208091040260200160405190810160405280929190818152602001828054600181600116156101000203166002900480156110ec5780601f106110c1576101008083540402835291602001916110ec565b820191906000526020600020905b8154815290600101906020018083116110cf57829003601f168201915b5050505050815260200160028201548152505081526020018981526020018781526020018681526020018a815260200188815260200160001515815250600260008054815260200190815260200160002060008201518160000160008201518160000160006101000a81548173ffffffffffffffffffffffffffffffffffffffff021916908373ffffffffffffffffffffffffffffffffffffffff16021790555060208201518160010190805190602001906111a9929190611873565b5060408201518160020155505060208201518160030160008201518160000160006101000a81548173ffffffffffffffffffffffffffffffffffffffff021916908373ffffffffffffffffffffffffffffffffffffffff1602179055506020820151816001019080519060200190611222929190611873565b5060408201518160020155505060408201518160060155606082015181600701556080820151816008015560a0820151816009019080519060200190611269929190611873565b5060c082015181600a015560e082015181600b0160006101000a81548160ff02191690831515021790555090505086888115156112a257fe5b0491508188039050600160a06040519081016040528060005481526020018681526020018481526020018a8152602001838152509080600181540180825580915050906001820390600052602060002090600502016000909192909190915060008201518160000155602082015181600101556040820151816002015560608201518160030155608082015181600401555050506101006040519081016040528060005481526020018581526020018381526020018281526020018381526020016000815260200160008152602001600015158152506005600080548152602001908152602001600020600082015181600001556020820151816001015560408201518160020155606082015181600301556080820151816004015560a0820151816005015560c0820151816006015560e08201518160070160006101000a81548160ff0219169083151502179055509050506001925050509998505050505050505050565b60008060008060008061141961068f565b945060008511151561142a57600080fd5b60003411151561143957600080fd5b6002600086815260200190815260200160002060030160000160009054906101000a900473ffffffffffffffffffffffffffffffffffffffff1673ffffffffffffffffffffffffffffffffffffffff163373ffffffffffffffffffffffffffffffffffffffff161415156114ac57600080fd5b346005600087815260200190815260200160002060040154019350346005600087815260200190815260200160002060030154039250600260008681526020019081526020016000206006015484141561150557600092505b618ca060026000878152602001908152602001600020600701546005600088815260200190815260200160002060040154601e020281151561154357fe5b04915060009050610100604051908101604052808681526020018881526020013481526020018481526020018581526020018381526020018281526020016001151581525060056000878152602001908152602001600020600082015181600001556020820151816001015560408201518160020155606082015181600301556080820151816004015560a0820151816005015560c0820151816006015560e08201518160070160006101000a81548160ff0219169083151502179055509050506002600086815260200190815260200160002060030160000160009054906101000a900473ffffffffffffffffffffffffffffffffffffffff1673ffffffffffffffffffffffffffffffffffffffff166108fc8334039081150290604051600060405180830381858888f19350505050158015611685573d6000803e3d6000fd5b50600195505050505050919050565b6000806000806116a261068f565b92506000831115156116b357600080fd5b60026000848152602001908152602001600020600a015460026000858152602001908152602001600020600601548115156116ea57fe5b049150600260008481526020019081526020016000206006015482600560008681526020019081526020016000206004015401111561174857600060056000858152602001908152602001600020600301819055506000935061179c565b6002600084815260200190815260200160002060060154600560008581526020019081526020016000206004015460640281151561178257fe5b0490508085101515611797576001935061179c565b600093505b505050919050565b6000806117af61068f565b90506000811115156117c057600080fd5b600560008281526020019081526020016000206004015491505090565b6000806117e861068f565b90506000811115156117f957600080fd5b6002600082815260200190815260200160002060060154600560008381526020019081526020016000206004015460640281151561183357fe5b0491505090565b60008061184561068f565b905060008111151561185657600080fd5b600260008281526020019081526020016000206007015491505090565b828054600181600116156101000203166002900490600052602060002090601f016020900481019282601f106118b457805160ff19168380011785556118e2565b828001600101855582156118e2579182015b828111156118e15782518255916020019190600101906118c6565b5b5090506118ef91906118f3565b5090565b61191591905b808211156119115760008160009055506001016118f9565b5090565b90565b60006119248235611b90565b905092915050565b600082601f830112151561193f57600080fd5b813561195261194d82611b4e565b611b21565b9150808252602083016020830185838301111561196e57600080fd5b611979838284611bba565b50505092915050565b600061198e8235611bb0565b905092915050565b60008060008060008060008060006101208a8c0312156119b557600080fd5b60008a013567ffffffffffffffff8111156119cf57600080fd5b6119db8c828d0161192c565b99505060208a013567ffffffffffffffff8111156119f857600080fd5b611a048c828d0161192c565b9850506040611a158c828d01611918565b97505060608a013567ffffffffffffffff811115611a3257600080fd5b611a3e8c828d0161192c565b9650506080611a4f8c828d01611982565b95505060a0611a608c828d01611982565b94505060c0611a718c828d01611982565b93505060e0611a828c828d01611982565b925050610100611a948c828d01611982565b9150509295985092959850929598565b600060208284031215611ab657600080fd5b6000611ac484828501611982565b91505092915050565b611ad681611b7a565b82525050565b611ae581611b86565b82525050565b6000602082019050611b006000830184611acd565b92915050565b6000602082019050611b1b6000830184611adc565b92915050565b6000604051905081810181811067ffffffffffffffff82111715611b4457600080fd5b8060405250919050565b600067ffffffffffffffff821115611b6557600080fd5b601f19601f8301169050602081019050919050565b60008115159050919050565b6000819050919050565b600073ffffffffffffffffffffffffffffffffffffffff82169050919050565b6000819050919050565b828183376000838301525050505600a265627a7a723058202585271c74a9dceb4b2102c2c1d11bbdcd2eec46a94e55867f314196f5f67e936c6578706572696d656e74616cf50037",
  "source": "pragma solidity ^0.4.23;\r\npragma experimental ABIEncoderV2;\r\n\r\ncontract Loan {\r\n\r\n    struct Lender {\r\n        address lenderAddress;\r\n        string lenderName;\r\n        uint loanId;\r\n    }\r\n\r\n    struct Borrower {\r\n        address borrowerAddress;\r\n        string borrowerName;\r\n        uint loanId;\r\n    }\r\n\r\n    struct DrawdownSchedule {\r\n        uint loanid; \r\n        uint256 drawdownDate;\r\n        uint256 drawdownRequest;\r\n        uint256 totalDrawdown;\r\n        uint256 openCommitement;\r\n    }\r\n\r\n    struct LoanData {\r\n        Lender lender;\r\n        Borrower borrower;\r\n        uint256 loanAmount;\r\n        uint256 interestRate;\r\n        uint256 signingDate;\r\n        string purposeLoan;\r\n        uint256 tranches;\r\n        bool confirmed;\r\n    }\r\n\r\n    struct Progress {\r\n        uint loanId;\r\n        uint256 date;\r\n        uint256 borrowerDrawdown; \r\n        uint256 lenderOutstandingCommitment;\r\n        uint256 borrowerTotalDrawdownAmount;\r\n        uint256 borrowerInterestPayment;\r\n        uint256 borrowerRepayments;\r\n        bool done;\r\n    }\r\n\r\n    //This value is 0 only if no contracts are available\r\n    uint loanId = 0;\r\n\r\n    DrawdownSchedule[] drawdownSchedule;\r\n\r\n    mapping (uint => LoanData) loans;\r\n    mapping (address => Lender) lenders;\r\n    mapping (address => Borrower) borrowers;\r\n    mapping (uint => Progress) loanProgress;\r\n\r\n    function findCurrentLoanId() public view returns (uint loanIdentifier) {\r\n        \r\n        uint tempLoanId = 0;\r\n\r\n        if (lenders[msg.sender].loanId > 0) {\r\n            tempLoanId = lenders[msg.sender].loanId;\r\n        } else {\r\n            if (borrowers[msg.sender].loanId > 0) {\r\n                tempLoanId = borrowers[msg.sender].loanId;\r\n            }\r\n        }\r\n        return tempLoanId;\r\n    }\r\n\r\n    /*\r\n    * Lender requests Loan \r\n    */\r\n    function requestLoan(string lenderName, string borrowerName, address borrowerAddress, string purposeLoan, uint256 loanAmount, uint256 tranchesTmp, uint256 interestRate, uint256 signingDate, uint256 firstDrawdownDate) public returns (bool success) {\r\n        \r\n        loanId++;\r\n        \r\n        //@todo: Now the loans are 1-to-1 from 1 Lender to 1 Borrower.\r\n        //this needs to be changes to accept Many to Many \r\n    \r\n        lenders[msg.sender] = Lender(msg.sender, lenderName, loanId);\r\n        borrowers[borrowerAddress] = Borrower(borrowerAddress, borrowerName, loanId);\r\n        loans[loanId] = LoanData(lenders[msg.sender],borrowers[borrowerAddress], loanAmount, interestRate, signingDate, purposeLoan, tranchesTmp, false);\r\n        \r\n        uint256 firstDrawdownAmount = loanAmount/tranchesTmp;\r\n        uint256 _openCommitement = loanAmount - firstDrawdownAmount;\r\n        drawdownSchedule.push(DrawdownSchedule(loanId, firstDrawdownDate, firstDrawdownAmount, loanAmount, _openCommitement));\r\n        \r\n        loanProgress[loanId] = Progress(loanId, firstDrawdownDate, firstDrawdownAmount, _openCommitement, firstDrawdownAmount, 0, 0, false);\r\n\r\n        return true;\r\n    }\r\n\r\n    /*\r\n    * Borrower confirms the loan\r\n    */\r\n    function confirmLoan () public returns (bool success) { \r\n        \r\n        uint tempLoanId = findCurrentLoanId();\r\n        require (tempLoanId > 0);\r\n\r\n        require (msg.sender == loans[tempLoanId].borrower.borrowerAddress);\r\n\r\n        loans[tempLoanId].confirmed = true;\r\n\r\n        return true;\r\n    }\r\n\r\n    function getToTalLoanAmount() public view returns (uint256 totalAmount) {\r\n        \r\n        uint tempLoanId = findCurrentLoanId();\r\n        require (tempLoanId > 0);\r\n        return loans[tempLoanId].loanAmount;\r\n    }\r\n\r\n    function getInitialDrawdownAmount() public view returns (uint256 initialDrawdownAmount) {\r\n        \r\n        uint tempLoanId = findCurrentLoanId();\r\n        require (tempLoanId > 0);\r\n\r\n        return loanProgress[tempLoanId].borrowerDrawdown;\r\n    }\r\n\r\n    //Lender triggers initial cash payment\r\n    function initialCashPayment (uint date) public payable returns (uint data) {\r\n                \r\n        uint tempLoanId = findCurrentLoanId();\r\n        require (tempLoanId > 0);\r\n        require (msg.value > 0);\r\n\r\n        loans[tempLoanId].borrower.borrowerAddress.transfer(msg.value);\r\n        loanProgress[tempLoanId].done = true;\r\n        loanProgress[tempLoanId].date = date;\r\n\r\n        return tempLoanId;\r\n    }\r\n\r\n    function findBorrowerDrawdownAmount() public view returns (uint256 currentBorrowerDrawdownAmount) {\r\n        \r\n        //First, find LoanId\r\n        uint tempLoanId = findCurrentLoanId();\r\n        require (tempLoanId > 0);\r\n\r\n        //Second, called drawdown Amount\r\n        return loanProgress[tempLoanId].borrowerTotalDrawdownAmount;\r\n    }\r\n\r\n    function findRegularDrawdownAmount() public view returns (uint256 currentDrawdownAmount) {\r\n        \r\n        //First, find LoanId\r\n        uint tempLoanId = findCurrentLoanId();\r\n        require (tempLoanId > 0);\r\n\r\n        //Second, calculate unit tranches\r\n        uint256 unitTranches = loans[tempLoanId].loanAmount/loans[tempLoanId].tranches;\r\n\r\n        return unitTranches;\r\n    }\r\n\r\n\r\n    //findLendersOpenCommitment\r\n    function findLendersOpenCommitment() public view returns (uint256 lenderOutstandingCommitment) {\r\n        \r\n        //First, find LoanId\r\n        uint tempLoanId = findCurrentLoanId();\r\n        require (tempLoanId > 0);\r\n\r\n        //Second, return the value\r\n        return loanProgress[tempLoanId].lenderOutstandingCommitment;\r\n    }\r\n\r\n    function findCurrentProjectProgress() public view returns (uint expectedProgress) {\r\n        \r\n        //First, find LoanId\r\n        uint tempLoanId = findCurrentLoanId();\r\n        require (tempLoanId > 0);\r\n\r\n        //Second, calculate expected project progress\r\n        return uint256(100)*(loanProgress[tempLoanId].borrowerTotalDrawdownAmount)/loans[tempLoanId].loanAmount;\r\n    }\r\n\r\n    \r\n    //\r\n    function verifyDrawdownApproval(uint projectProgress) public returns (bool confirmation) {\r\n        \r\n        //First, find Loan Id\r\n        uint tempLoanId = findCurrentLoanId();\r\n        //Second, update Loan Progress\r\n        require(tempLoanId > 0);\r\n        \r\n        //Second, calculate unit tranches and confirm that drawdown amount is not higher than total loan amount\r\n        uint256 unitTranches = loans[tempLoanId].loanAmount/loans[tempLoanId].tranches;\r\n        if (loanProgress[tempLoanId].borrowerTotalDrawdownAmount + unitTranches > loans[tempLoanId].loanAmount) {\r\n            loanProgress[tempLoanId].lenderOutstandingCommitment = 0;\r\n            return false;\r\n        }\r\n\r\n        //Third, verify if expected progress is correct\r\n        uint expectedProgress = uint256(100)*(loanProgress[tempLoanId].borrowerTotalDrawdownAmount)/loans[tempLoanId].loanAmount;\r\n        if (projectProgress >= expectedProgress) return true;\r\n        else return false;\r\n    }\r\n\r\n    //Borrower requests regular loan\r\n    function requestDrawdown(uint256 date) public payable returns(bool success) {\r\n        //Find loan Id\r\n        uint tempLoanId = findCurrentLoanId();\r\n        require (tempLoanId > 0);\r\n        require (msg.value > 0);\r\n        require (msg.sender == loans[tempLoanId].borrower.borrowerAddress);\r\n\r\n        //Calculating the new values\r\n        uint256 _newBorrowerTotalDrawdownAmount = loanProgress[tempLoanId].borrowerTotalDrawdownAmount + msg.value;\r\n        uint256 _newLendersOpenCommitement = loanProgress[tempLoanId].lenderOutstandingCommitment - msg.value;\r\n        if (_newBorrowerTotalDrawdownAmount == loans[tempLoanId].loanAmount) {\r\n            _newLendersOpenCommitement = 0;\r\n        }\r\n        uint256 _newBorrowerInterestPayment = uint256(30)*loanProgress[tempLoanId].borrowerTotalDrawdownAmount*loans[tempLoanId].interestRate/uint256(360*100);\r\n        uint256 _newBorrowerRepayments = 0;\r\n        \r\n        //Updating Loan Progress\r\n        loanProgress[tempLoanId] = Progress(tempLoanId, date, msg.value, _newLendersOpenCommitement, _newBorrowerTotalDrawdownAmount, _newBorrowerInterestPayment, _newBorrowerRepayments, true);\r\n\r\n        //Value Transfer\r\n        loans[tempLoanId].borrower.borrowerAddress.transfer(msg.value - _newBorrowerInterestPayment);\r\n        \r\n        return true;\r\n    }\r\n\r\n    function findLoansInterestRate() public view returns (uint256 interestRate) {\r\n        //Find loan Id\r\n        uint tempLoanId = findCurrentLoanId();\r\n        require (tempLoanId > 0);\r\n\r\n        return loans[tempLoanId].interestRate;\r\n    }\r\n\r\n    function getPaymentInterest() public view returns (uint256 lenderCommitmentAmount) {\r\n        \r\n        //Find loan Id\r\n        uint tempLoanId = findCurrentLoanId();\r\n        require (tempLoanId > 0);\r\n\r\n        return loanProgress[tempLoanId].borrowerInterestPayment;\r\n    }\r\n\r\n    function verifyRepayment(uint256 repayment) public view returns (bool verify) {\r\n        //Find loan Id\r\n        uint tempLoanId = findCurrentLoanId();\r\n        require (tempLoanId > 0);\r\n        require (msg.sender == loans[tempLoanId].borrower.borrowerAddress);\r\n        require (repayment > 0);\r\n        require (repayment < loans[tempLoanId].loanAmount);\r\n        require (loanProgress[tempLoanId].borrowerRepayments + repayment <= loans[tempLoanId].loanAmount);\r\n\r\n        return true;\r\n    }\r\n\r\n    \r\n    function requestRepayment(uint256 date) public payable returns(bool success) {\r\n        //Find loan Id\r\n        uint tempLoanId = findCurrentLoanId();\r\n        require (tempLoanId > 0);\r\n        require (msg.sender == loans[tempLoanId].borrower.borrowerAddress);\r\n        require (msg.value > 0);\r\n        require (msg.value <= loans[tempLoanId].loanAmount);\r\n        require (loanProgress[tempLoanId].borrowerRepayments + msg.value <= loans[tempLoanId].loanAmount);\r\n\r\n        //\r\n        // Calculating the new values\r\n        uint256 _newBorrowerTotalDrawdownAmount = loanProgress[tempLoanId].borrowerTotalDrawdownAmount - msg.value;\r\n        uint256 _newLendersOpenCommitement = loanProgress[tempLoanId].lenderOutstandingCommitment;\r\n        uint256 _newBorrowerInterestPayment = uint256(30)*loanProgress[tempLoanId].borrowerTotalDrawdownAmount*loans[tempLoanId].interestRate/uint256(360*100);\r\n        uint256 _newBorrowerRepayments = loanProgress[tempLoanId].borrowerRepayments + msg.value;\r\n        \r\n        //Updating Loan Progress\r\n        loanProgress[tempLoanId] = Progress(tempLoanId, date, msg.value, _newLendersOpenCommitement, _newBorrowerTotalDrawdownAmount, _newBorrowerInterestPayment, _newBorrowerRepayments, true);\r\n\r\n        //Value Transfer\r\n        loans[tempLoanId].lender.lenderAddress.transfer(msg.value + _newBorrowerInterestPayment);\r\n      \r\n        return true;\r\n    }\r\n\r\n    function findTotalRepaymentAmount() public view returns (uint256 repaymentAmount) {\r\n        //Find loan Id\r\n        uint tempLoanId = findCurrentLoanId();\r\n        require (tempLoanId > 0);\r\n\r\n        return loanProgress[tempLoanId].borrowerRepayments;\r\n    }\r\n}",
  "sourcePath": "C:\\Users\\M260072\\Smartcontracts\\loan\\contracts\\Loan.sol",
  "compiler": {
    "name": "solc",
    "version": "0.4.23+commit.124ca40d.Emscripten.clang"
  },
  "schemaVersion": "2.0.0",
  "updatedAt": "2018-05-09T09:33:28.821Z"
}